:020000040800F2
:10000000087F0120E1020008A92D0108790C0108F0
:10001000A12D010869120008E9C5010800000000CF
:10002000000000000000000000000000C15C0108AA
:10003000C12400080000000021360108215E0108EB
:10004000FB020008FB020008FB020008FB0200089C
:10005000FB020008FB020008FB020008FB0200088C
:10006000FB020008FB020008FB02000889180008D8
:1000700099180008A9180008B9180008C91800083C
:10008000D9180008E9180008FB02000849250008F3
:10009000B125000859250008C1250008FB02000809
:1000A000FB020008FB020008FB020008FB0200083C
:1000B00081600108FB020008FB020008FB02000847
:1000C000FB020008FB020008FB020008FB0200081C
:1000D000D15A0108817A0108917A0108A17A0108B0
:1000E000FB020008FB02000800000000FB02000801
:1000F000FB020008FB020008FB020008F9180008D8
:10010000FB020008FB020008FB020008FB020008DB
:10011000FB02000851690108FB020008FB0200080D
:1001200009190008191900082919000839190008C7
:1001300049190008FB020008FB020008FB02000846
:1001400000000000000000000000000000000000AF
:100150005919000869190008FB020008FB02000891
:10016000FB020008FB020008FB020008FB0200087B
:10017000FB020008212E0108FB020008000000001D
:10018000FB020008FB02000861690108FB0200088D
:10019000FB020008FB020008FB020008FB0200084B
:1001A000FB020008FB020008FB0200080000000040
:1001B000FB020008FB020008FB020008FB0200082B
:1001C000FB020008FB020008000000000000000025
:1001D0000000000000000000FB020008000000001A
:1001E000000000000000000000000000000000000F
:1001F0000000000000000000FB020008FB020008F5
:10020000FB020008FB02000800000000FB020008DF
:10021000FB020008FB020008FB020008FB020008CA
:10022000FB02000800000000FB02000800000000C4
:10023000FB020008FB02000800000000FB020008AF
:10024000FB020008A1090008FB020008FB020008ED
:10025000FB020008FB020008FB020008FB0200088A
:10026000FB020008FB020008FB020008FB0200087A
:10027000FB020008FB020008FB020008000000006F
:10028000FB020008FB020008FB020008FB0200085A
:1002900000000000FB020008FB0200080000000054
:1002A00000000000FB020008FB020008FB0200083F
:1002B000717A0108FB020008FB02000819260008F9
:1002C00029260008FB020008FB020008DFF80CD01A
:1002D00000F09AF80048004751D60108087F012035
:1002E0000648804706480047FEE7FEE7FEE7FEE7D0
:1002F000FEE7FEE7FEE7FEE7FEE7FEE7415F0108F7
:10030000CD0200082DE9F05F0546002092469B468D
:1003100088460646814640241BE02846414647461B
:10032000224600F060F853465A46C01A914110D355
:1003300011461846224600F047F82D1A67EB0108CF
:100340004F4622460120002100F03EF817EB00093D
:100350004E41201EA4F10104DFDC484631462A4606
:100360004346BDE8F09F40EA01039B0703D009E044
:1003700008C9121F08C0042AFAD203E011F8013B91
:1003800000F8013B521EF9D27047D2B201E000F8EA
:10039000012B491EFBD270470022F6E710B5134629
:1003A0000A4604461946FFF7F0FF204610BD30B557
:1003B00004460020034600E05B1C934203D2E05C4D
:1003C000CD5C401BF8D030BD202A04DB203A00FA77
:1003D00002F1002070479140C2F1200320FA03F39C
:1003E000194390407047202A04DB203A21FA02F09A
:1003F0000021704721FA02F3D040C2F1200291405F
:1004000008431946704700001CB509480090094888
:1004100001900546009C06E0E06840F0010394E886
:10042000070098471034AC42F6D3FFF753FF0000A3
:1004300060FC010890FC010870B58C1810F8015B95
:1004400015F0070301D110F8013B2A1106D110F86D
:10045000012B03E010F8016B01F8016B5B1EF9D171
:100460002B0705D40023521E0DD401F8013BFAE7F7
:1004700010F8013BCB1A921C03E013F8015B01F862
:10048000015B521EF9D5A142D8D3002070BD0000F7
:1004900080B584B003900398006842F20001C4F272
:1004A0000201884209D0FFE70398006842F2001178
:1004B000C4F20201884209D1FFE742F20830C4F2D7
:1004C0000200006810F4403F09D129E046F20830EC
:1004D000C5F60200006810F4403F21D0FFE70CF0A1
:1004E000CFFC0290039840680190B0F5803F0AD09D
:1004F000FFE70198B0F5003F05D0FFE70198B0F5A0
:10050000403F07D00AE00398C1880298B0FBF1F0A1
:10051000029004E002988008029000E0FFE75FE0AC
:100520004FF4002000210AF0B7FC029003984068C5
:100530000090B0F5802F32D0FFE70098B0F5002F83
:100540002DD0FFE70098B0F5402F28D0FFE70098A6
:10055000B0F5801F23D0FFE70098B0F5A01F1ED094
:10056000FFE70098B0F5C01F19D0FFE70098B0F57D
:10057000E01F1FD0FFE70098B0F5001F1ED0FFE777
:100580000098B0F5101F1DD0FFE70098B0F5201FB0
:100590001CD0FFE70098B0F5301F1BD01EE0039879
:1005A00041686FF0010000EA51410298B0FBF1F0A0
:1005B000029014E002980009029010E002984009AD
:1005C00002900CE002988009029008E00298C009AD
:1005D000029004E00298000A029000E0FFE7FFE7C3
:1005E000029840080290029845F61061C0F25F013F
:1005F000884209D8FFE703980068806820F44070BB
:100600000399096888602EE002984BF62041C0F2F9
:10061000BE0188420AD8FFE703980068806801217C
:1006200061F309200399096888601BE0029847F686
:100630004001C0F27D1188420AD8FFE703980068A4
:100640008068022161F3092003990968886008E045
:1006500003980068806840F44070039909688860D6
:10066000FFE7FFE7FFE704B080BD000000000000E7
:1006700080B582B001900198806B00900098006E68
:1006800010F0500F4AD1FFE70099086E40F4007057
:1006900008660098006800680007002821D5FFE779
:1006A0000098006811F0D8FAD0B1FFE70098006810
:1006B000C0688004002812D4FFE70099086E20F477
:1006C000807008660098006EC004002806D4FFE71A
:1006D0000099086E40F001000866FFE7FFE7FFE7BA
:1006E00018E000980068C068800790B9FFE700999B
:1006F000086E20F4807008660098006EC004002820
:1007000006D4FFE70099086E40F001000866FFE795
:10071000FFE7FFE7009803F0FFF910E00098006E94
:10072000C006002804D5FFE7009803F0FDF905E0B6
:100730000098806DC16C01988847FFE7FFE702B021
:1007400080BD00000000000080B582B001900198DB
:10075000806B00900099086E40F040000866009998
:10076000486E40F004004866009803F0DDF902B0DE
:1007700080BD00000000000080B582B001900198AB
:10078000806B0090009803F0CBF902B080BD0000B0
:1007900080B584B002900298006811F02DFA0090A4
:1007A0000298006811F030FA00284BD0FFE700985B
:1007B000002847D1FFE702980068806800F00D002C
:1007C000012809D1FFE70298006811F095F9029815
:1007D0000168032008600DE00299086E40F01000E7
:1007E00008660299486E40F00100486601208DF8C5
:1007F0000F002BE008F0CCFB0190FFE702980068A7
:100800008068C007E8B1FFE708F0C2FB0199401A11
:10081000032815D3FFE7029800688068C00770B10D
:10082000FFE70299086E40F0100008660299486ED2
:1008300040F00100486601208DF80F0006E0FFE758
:10084000DCE7FFE700208DF80F00FFE79DF80F00C1
:1008500004B080BD0000000080B586B0049004980C
:10086000006811F0D1F9002840F09280FFE7049869
:10087000006880683F21C8F2000108420ED0FFE7FF
:100880000499086E40F0100008660499486E40F024
:100890000100486601208DF817007DE0049800688B
:1008A00011F046F908F074FB0390049801680120E8
:1008B00042F20002C4F20202914201900CD0FFE722
:1008C000049800684DF60071CBF6FD710844B0FA4B
:1008D00080F040090190FFE70198C10746F200301F
:1008E000C5F6020000291CBF42F20030C4F202002B
:1008F00011F052F902900498006842F20011C4F21B
:100900000201884206D1FFE742F20000C4F2020071
:10091000009003E0049800680090FFE700980499B5
:100920000968884203D0FFE7029880BBFFE7FFE732
:10093000049800680068C00740BBFFE7049800689F
:1009400011F062F928B9FFE70498006811F0F0F897
:10095000FFE708F01DFB0399401A032815D3FFE7B2
:10096000049800680068C00770B9FFE70499086E32
:1009700040F0100008660499486E40F00100486697
:1009800001208DF8170007E0FFE7D1E7FFE7FFE759
:1009900000208DF81700FFE79DF8170006B080BD16
:1009A00080B54AF6B860C2F2000004F03DFD80BD9B
:1009B00080B540F60000C5F602000122114608F09D
:1009C000CFFA80BD0000000080B540F60000C5F6FB
:1009D00002000121002208F0C3FA80BD00000000DF
:1009E00080B588B000208DF81E00FFF7EDFF802055
:1009F000049000F0D9FA5520059000F0D5FA05983A
:100A000000F0D2FA8DF81E00FFF7D2FF9620069074
:100A100001F06EFDFFF7D8FF049800F0C5FA0598C5
:100A200000F0C2FA059800F0BFFA8DF81E00FFF73B
:100A3000BFFF069801F05CFDFFF7C6FF7E20B621E0
:100A400000F022FBFFF7B4FF502001F03DFDFFF75F
:100A5000BBFF049800F0A8FA059800F0A5FA0598E5
:100A600000F0A2FA8DF81E00FFF7A2FF069801F031
:100A70003FFDFFF7A9FF049800F096FA059800F0F3
:100A800093FA059800F090FA8DF81E00FFF790FF9A
:100A9000069801F02DFD9DF81E001E2804D0FFE7EA
:100AA000FF208DF81F005CE000208DF81D00FFE79F
:100AB0009DF81D00052850DCFFE7FFF785FF9DF836
:100AC0001D0000EB400240F20C00C2F20000039057
:100AD0008118805C497800F0D7FAFFF769FF96200B
:100AE000029001F005FDFFF76FFF03989DF81D10C0
:100AF00001EB4101405C40F0800000F055FA5520C8
:100B0000019000F051FA019800F04EFA8DF81E00A5
:100B1000FFF74EFF029801F0EBFC03999DF81E00D1
:100B20009DF81D2002EB42021144497888420DD005
:100B3000FFE79DF81D0000EB400140F20C00C2F2FF
:100B40000000084480788DF81F000AE0FFE79DF858
:100B50001D0001308DF81D00AAE700208DF81F0050
:100B6000FFE79DF81F0008B080BD000000000000F6
:100B700080B540F60000C5F602000821012208F009
:100B8000EFF980BD0000000080B540F60000C5F61A
:100B900002000821002208F0E3F980BD00000000F7
:100BA00080B586B0002002908DF81600FFF7ECFFAC
:100BB00002980DF11601039100F0E2F9FFF7D8FF5A
:100BC0009620049001F094FCFFF7DEFF0298039951
:100BD00000F0D6F9FFF7CCFF049801F089FCFFF78D
:100BE000D3FF1420B62100F04FFAFFF7C1FF5020C9
:100BF00001F06AFCFFF7C8FF0298039900F0C0F902
:100C0000FFF7B6FF049801F073FCFFF7BDFF0298F1
:100C1000039900F0B5F9FFF7ABFF049801F068FC09
:100C20009DF816000F2804D0FFE7FF208DF817006D
:100C300053E000208DF81500FFE79DF8150005280A
:100C400047DCFFE7FFF7A0FF9DF8150000EB40022F
:100C500040F20420C2F2000001908118805C4978C3
:100C600000F012FAFFF784FF9620009001F040FC9C
:100C7000FFF78AFF01989DF8151001EB4101405CD8
:100C80000DF1160100F07CF9FFF772FF009801F0FA
:100C90002FFC01999DF816009DF8152002EB4202E9
:100CA0001144497888420DD0FFE79DF8150000EB0C
:100CB000400140F20420C2F20000084480788DF820
:100CC00017000AE0FFE79DF8150001308DF81500C8
:100CD000B3E700208DF81700FFE79DF8170006B076
:100CE00080BD00000000000080B584B003900020AB
:100CF00002900190FFF768FE922000F055F9122053
:100D000001A90091062200F017F9FFF751FE9DF8A6
:100D100004009DF8051040EA0120039908849DF81D
:100D200006009DF8071040EA0120039948849DF8C9
:100D300008009DF8091040EA01200399888440F2D8
:100D40002000C2F2000090ED000A0399B1F92020C2
:100D500001EE102AB8EEC11A20EE010A81ED010A57
:100D600090ED000A0399B1F9222001EE102AB8EEA5
:100D7000C11A20EE010A81ED020A90ED000A0398E3
:100D8000B0F9241001EE101AB8EEC11A20EE010AD3
:100D900080ED030AFFF718FEA22000F005F9009984
:100DA0002220022200F0C8F8FFF702FE9DF804009E
:100DB0009DF80510C00040EA5110039988850398FA
:100DC000B0F92C00B0F5806F06DBFFE70399888D42
:100DD000A0F500608885FFE70398B0F92C1000EEBD
:100DE000101AB8EEC01AB4EE002AB3EE070AA1EE4C
:100DF000020A80ED070AFFF7C7FE002001A90822BA
:100E000000F09AF8FFF7B4FE9DF804000F2819D1FE
:100E1000FFE79DF806009DF8071040EA01200399BE
:100E2000C8849DF808009DF8091040EA0120039944
:100E300008859DF80A009DF80B1040EA01200399EF
:100E40004885FFE740F22400C2F2000090ED001A4E
:100E50000399B1F9262000EE102AB8EEC02A91EDD0
:100E60000C0A91EE020A81ED040A90ED001A039932
:100E7000B1F9282000EE102AB8EEC02A91ED0D0A33
:100E800091EE020A81ED050A90ED001A0398B0F97F
:100E90002A1000EE101AB8EEC02A90ED0E0A91EE5C
:100EA000020A80ED060A04B080BD000000000000C8
:100EB00080B582B000208DF80700FFE7FFF790FDB6
:100EC00001469DF8070008438DF80700FFF768FE0C
:100ED00001469DF8070008438DF80700022001F045
:100EE000F3FAFFE79DF807000028E7D1FFE740F29B
:100EF0009840C2F2000000F003F802B080BD00008C
:100F000081B00090009944F28D00C3F6B4300863BC
:100F1000009942F66C40CBF6DE104863009948F623
:100F2000C040C3F6FB20886300990120087001B01F
:100F3000704700000000000080B584B08DF80F00FD
:100F400002918DF807209DF80F0040F0800000F01E
:100F50002BF8FFE79DF8070070B1FFE7552000F080
:100F600023F8029908700298013002909DF807005A
:100F700001388DF80700EDE704B080BD00000000E7
:100F800080B582B08DF8070000919DF8070040F011
:100F9000800000F009F8552000F006F8009908706C
:100FA00002B080BD0000000080B582B08DF807005F
:100FB00000208DF806006946642008604BF68440E6
:100FC000C2F200000DF107010DF1060201230DF040
:100FD000AFFA9DF8060002B080BD000000000000DE
:100FE00080B582B08DED010ADDED010A48F60430CE
:100FF000C2F200009FED220A12F0F6F8FFE748F671
:101000000430C2F2000090ED0A0A90ED151AB4EE19
:10101000410AF1EE10FA07DDFFE748F60431C2F2AB
:101020000001486D88621BE048F60430C2F20000FF
:1010300090ED0A0A90ED151AB1EE411AB4EE410A8C
:10104000F1EE10FA0BDAFFE748F60430C2F20000C6
:1010500090ED150AB1EE400A80ED0A0AFFE7FFE7BE
:10106000FFE748F60430C2F2000090ED0A0ABCEE39
:10107000C00A10EE100A0FF003FE02B080BD00BFE0
:10108000000020420000000080B582B08DF807000B
:101090008DF806109DF80700FFF786FF9DF8060003
:1010A000FFF782FF02B080BD80B582B04AF6605083
:1010B000C2F200000190002140F2FF7201F09CFD9D
:1010C000019840F28201C2F20041022203F090F83E
:1010D00002B080BD0000000080B5A0B000200690E6
:1010E00018901990022104911A91012105911B91E8
:1010F0001C901D904BF2C050C2F20000029018A943
:1011000006F0BAFB049A069B029869460B601146EA
:1011100006F03EFC0599069A029806F0BDFA029880
:1011200007F0DEFC0499069810901190129113912B
:10113000149015904BF26060C2F20000039010A969
:1011400006F09AFB049A069B039869460B601146C9
:1011500006F01EFC069A0398102106F09DFA0398EB
:1011600006F06AFC03980E22114606F041FC039833
:1011700007F0B6FC049A05990698089009900A921F
:101180000B910C900D904BF20070C2F20000079092
:1011900008A906F071FB049A069B079869460B6044
:1011A000114606F0F5FB0599069A079806F074FAC1
:1011B000079807F095FC20B080BD000000000000FB
:1011C000704700000000000080B54BF65850C2F296
:1011D00000000C210EF0A4F980BD0000000000000A
:1011E00080B582B040F21470C2F20000009009F0A5
:1011F000BBFB00984068019041F20001C4F201017C
:10120000086820F00100086001984BF2C532C9F26D
:10121000A212A0FB0220C00C41F20C02C4F2010297
:101220001060086840F00100086040F22401C2F23A
:10123000004101F127024BF6A450C2F2000027231F
:1012400016F036FC40F20001C2F2004101F1120238
:101250004BF6F470C2F20000122316F029FC02B023
:1012600080BD000000000000FFE7FEE70000000076
:1012700080B582B001900020009040F22C00C2F2B4
:101280000000406840F2D411C2F200014860FFE75C
:101290001CF0CAFA009040F29C51C2F200014A7C54
:1012A00040F2D410C2F2000080F828200A7C80F8B6
:1012B0002920CA7C80F82A20897C80F82B101AF01B
:1012C000EFFA9DF80000C00708B9FFE7FFE701202B
:1012D0001CF076FADCE7000084B08DF80F00029174
:1012E000ADF806209DF80F000146009123281DD877
:1012F0000099DFE801F012131415161B1B1B1B1BB2
:101300001B1B1B1B1B1B1B1B1B1B1B1B1B1B1B1B2D
:101310001B1B1B1B1B1B1718191A08E007E006E014
:1013200005E004E003E002E001E000E0FFE7002068
:1013300004B070470000000000207047000000006B
:1013400080B582B04AF68420C2F20000009049F2D3
:101350008C71C2F200010022019217F05DF9009831
:1013600048F68C71C2F2000117F036F9019802B00C
:1013700080BD00000000000080B584B003900291A1
:1013800003994AF68420C2F20000019017F024F974
:10139000019817F0C5F8002004B080BD00000000DF
:1013A00083B0029001918DF8032000208DF8020097
:1013B0009DF9020003B0704780B584B00390039894
:1013C00090ED000A90ED011A9FED272AA1EE020A86
:1013D00040F22C00C2F20000019080ED110A039946
:1013E00091ED000A91ED011AA1EE420A80ED080A82
:1013F00090ED080AD0ED110A039890ED001A16F04E
:101400001BFD019890ED080AB0F9100001EE100ADA
:10141000F8EEC10A40F2D440C2F20000029011F08E
:10142000E3FE0199029891ED110AB1EE400AB1F97B
:10143000341001EE101AF8EEC10A643011F0D4FE37
:10144000029890ED0A0ABDEEC00A10EE101A039A37
:10145000118290ED230ABDEEC00A10EE100A039926
:10146000488204B080BD00BF9A99193F0000000077
:1014700080B584B0039040F2D440C2F200000190E5
:1014800040F2BC02C2F200020121029112F04CF8BB
:1014900001980299643040F2D802C2F2000212F0C0
:1014A00043F8029949F6A870C2F2000040F258428F
:1014B000C2F2000212F038F804B080BD0000000053
:1014C00081B0009040F22C00C2F20000B0F9101080
:1014D000B0F93420114400EE101AB8EEC00AB6EE8E
:1014E000001A20EE010A009981ED020AB0F91010ED
:1014F000B0F93400401A00EE100AB8EEC00A9FEDB1
:10150000041A80EE010A009880ED030A01B07047CA
:101510009A99993F0000000080B584B0039040F292
:101520007440C2F20000C07A01460291012808D03E
:10153000FFE70298022805D0FFE70298032807D0AA
:1015400053E053E0039900200860039948604DE0A0
:1015500040F27440C2F20000B0F9061000EE101A1A
:10156000B8EEC00A039981ED000AB0F900000090BE
:101570000028019002D5009840420190019865280A
:101580001CDBFFE740F27440C2F20000B0F900003B
:1015900000EE100AB8EEC00A9FED151A20EE010AFF
:1015A000039880ED010A40F28060C2F2000080687A
:1015B0004CF2BC11C2F20001086015E04CF2BC1004
:1015C000C2F2000090ED000A40F28060C2F200001A
:1015D000D0ED020A49F6A870C2F2000011F004FE34
:1015E000039900204860FFE700E0FFE704B080BDFA
:1015F000CDCCCC3E0000000080B584B0039000202C
:10160000029040F29C50C2F20000FFF731FFFFE76A
:101610001CF00AF9029040F29C50C2F200000190C6
:10162000FFF74EFF0198FFF777FF0198FFF7C4FE21
:1016300001201CF0C5F8EBE780B584B003908DED78
:10164000020AADF80610002000900398007800F020
:101650000100012820D0FFE70399C888088103987A
:10166000B0F9061000EE101AB8EEC00ABDF8061068
:1016700001EE101AB8EEC11A9DED022A21EE021AEF
:1016800080EE010A9FED4D1A20EE010A80ED030A5B
:10169000039901200870FFE70399B1F90600B1F939
:1016A0000810401A00EE100AB8EEC00A8DED000ACC
:1016B0009DED000ABDF8060001EE100AB8EEC11A51
:1016C000B6EE002A21EE021AB4EE410AF1EE10FA4B
:1016D0001ADDFFE79DED000ABDF8060001EE100AD5
:1016E000B8EEC11A30EE410A9DED022A21EE021A2F
:1016F00080EE011A039890ED030A9FED302AA1EEC7
:10170000020A80ED030A45E09DED000ABDF80600DF
:10171000404201EE100AB8EEC11AB6EE002A21EEE0
:10172000021AB4EE410AF1EE10FA1ADAFFE79DED63
:10173000000ABDF8060001EE100AB8EEC11A30EE3C
:10174000010A9DED022A21EE021A80EE011A039889
:1017500090ED030A9FED192AA1EE020A80ED030A1B
:1017600017E09DED000ABDF8060001EE100AB8EE84
:10177000C11A9DED022A21EE021A80EE011A039889
:1017800090ED030A9FED0D2AA1EE020A80ED030AF7
:10179000FFE7FFE70399C8880881039890ED030AE3
:1017A000DFED070A9FED071A01F00EF9039880EDAF
:1017B000030A039890ED030A04B080BD0000B4430F
:1017C000000034C30000344380B584B0039002911C
:1017D00001920398006801998968884201D0FFE767
:1017E0004BE0029880790199087702980178407857
:1017F00040EA01200199488202988178C07840EA45
:1018000001200199088202980179407940EA01207B
:101810000199C881019800780146009140B1FFE725
:101820000098012810D0FFE70098022818D023E084
:1018300001980C30B7EE000A4FF40051FFF7FCFEA0
:10184000019880ED060A18E001980C309FED0D0A12
:101850004FF40051FFF7F0FE019880ED060A0CE00E
:1018600001980C309FED060A4FF40051FFF7E4FE9B
:10187000019880ED060A00E0FFE704B080BD00BFDC
:10188000000010422CA0994180B54AF63070C2F297
:10189000000003F0C9FD80BD80B54AF6A870C2F211
:1018A000000003F0C1FD80BD80B54BF22000C2F204
:1018B000000003F0B9FD80BD80B54BF21010C2F2FC
:1018C000000003F0B1FD80BD80B54BF28810C2F27C
:1018D000000003F0A9FD80BD80B54BF2F020C2F2FC
:1018E000000003F0A1FD80BD80B54BF26830C2F26C
:1018F000000003F099FD80BD80B54BF2E030C2F2EC
:10190000000003F091FD80BD80B54BF25840C2F25B
:10191000000003F089FD80BD80B54BF2D040C2F2DB
:10192000000003F081FD80BD80B54BF24850C2F24B
:10193000000003F079FD80BD80B54BF29800C2F243
:10194000000003F071FD80BD80B54BF20020C2F2B3
:10195000000003F069FD80BD80B54BF27820C2F233
:10196000000003F061FD80BD80B54AF64060C2F220
:10197000000003F059FD80BD83B002900298016819
:1019800001201022C4F202029142009000F0A380D4
:10199000FFE70298016801202822C4F20202914266
:1019A000009000F09880FFE7029801680120402233
:1019B000C4F202029142009000F08D80FFE702988D
:1019C000016801205822C4F202029142009000F006
:1019D0008280FFE70298016801207022C4F20202AF
:1019E0009142009077D0FFE7029801680120882299
:1019F000C4F20202914200906DD0FFE702980168A4
:101A00000120A022C4F202029142009063D0FFE7BD
:101A1000029801680120B822C4F2020291420090AB
:101A200059D0FFE702980168012040F21042C4F249
:101A30000202914200904ED0FFE702980168012017
:101A400040F22842C4F202029142009043D0FFE7E4
:101A500002980168012040F24042C4F20202914221
:101A6000009038D0FFE702980168012040F2584208
:101A7000C4F20202914200902DD0FFE70298016863
:101A8000012040F27042C4F202029142009022D042
:101A9000FFE702980168012040F28842C4F2020286
:101AA0009142009017D0FFE702980168012040F2B0
:101AB000A042C4F20202914200900CD0FFE70298CB
:101AC00000684FF64831CBF6FD710844B0FA80F05B
:101AD00040090090FFE70098C00740B3FFE7029875
:101AE000007810384AF6AB21CAF6AA21A0FB0110F3
:101AF00000090190019800F007014FF6D800C0F6E8
:101B00000100405C0299C8650198042807D3FFE7EB
:101B100002990868042262F30900886506E00299C8
:101B2000086840F2FF3290438865FFE705E00299BC
:101B3000086820F0FF008865FFE70298806D03B019
:101B4000704700000000000084B003900398006814
:101B5000019003980168012045F20842C5F602028F
:101B6000914200904ED0FFE703980168012045F2B2
:101B70001C42C5F602029142009043D0FFE7039851
:101B80000168012045F23042C5F602029142009000
:101B900038D0FFE703980168012045F24442C5F6BA
:101BA0000202914200902DD0FFE7039801680120C6
:101BB00045F25842C5F602029142009022D0FFE75A
:101BC00003980168012045F26C42C5F60202914279
:101BD000009017D0FFE703980168012045F280428A
:101BE000C5F60202914200900CD0FFE7039800680E
:101BF0004AF66C31CAF2FD710844B0FA80F040092F
:101C00000090FFE70098C00710B3FFE70398007843
:101C100008384CF6CD41CCF6CC41A0FB01100009B0
:101C20000290029945F60000C5F6020000EB810023
:101C300003990866039945F68000C5F602004866D8
:101C4000029800F01F01012088400399886635E062
:101C50000398007810384AF6AB21CAF6AA21A0FBF7
:101C6000011000090290019840F2B841C4F202014B
:101C700088420CD8FFE7019840F21041C4F20201FB
:101C8000884204D3FFE7029808300290FFE70299E8
:101C900040F60000C4F2020000EB810003990866E0
:101CA000039940F68000C4F202004866029800F0F2
:101CB0001F010120884003998866FFE704B0704740
:101CC00083B002900298007901900198002800F0FA
:101CD0008A80FFE70198082800F28580FFE70298D4
:101CE0000168012045F20842C5F6020291420090C7
:101CF0004ED0FFE702980168012045F21C42C5F66C
:101D000002029142009043D0FFE70298016801204F
:101D100045F23042C5F602029142009038D0FFE70A
:101D200002980168012045F24442C5F60202914240
:101D300000902DD0FFE702980168012045F258423B
:101D4000C5F602029142009022D0FFE70298016896
:101D5000012045F26C42C5F602029142009017D074
:101D6000FFE702980168012045F28042C5F60202B1
:101D7000914200900CD0FFE7029800684AF66C315F
:101D8000CAF2FD710844B0FA80F040090090FFE704
:101D90000098C00780B1FFE7019945F6FC00C5F641
:101DA000020000EB81000299C866029945F64010D6
:101DB000C5F6020008670FE0019940F6FC00C4F286
:101DC000020000EB81000299C866029940F64010BB
:101DD000C4F202000867FFE70198411E0120884015
:101DE00002994867FFE703B0704700000000000059
:101DF00085B0049000208DF80F000498806918BB0E
:101E0000FFE70498806A029003281BD80299DFE854
:101E100001F0020D0218049890F82F00C00720B1BD
:101E2000FFE701208DF80F00FFE70CE00498C06A7F
:101E3000B0F1C07F04D1FFE701208DF80F00FFE76C
:101E400001E000E0FFE747E004988069B0F5005F3B
:101E500026D1FFE70498806A019003281ED80199D3
:101E6000DFE801F00206021101208DF80F0016E0F4
:101E7000049890F82F00C00720B1FFE701208DF8EB
:101E80000F00FFE70BE00498C06AB0F1C07F04D1F7
:101E9000FFE701208DF80F00FFE700E0FFE71AE001
:101EA0000498806A0090032804D3FFE70098032871
:101EB00004D00EE001208DF80F000BE0049890F89C
:101EC0002F00C00720B1FFE701208DF80F00FFE7CA
:101ED00000E0FFE7FFE7FFE79DF80F0005B0704760
:101EE00089B008900791069205930898806D049038
:101EF0000898806D03900898016801201022C4F2B0
:101F000002029142029000F00381FFE70898016805
:101F100001202822C4F202029142029000F0F880CF
:101F2000FFE70898016801204022C4F202029142B2
:101F3000029000F0ED80FFE7089801680120582228
:101F4000C4F202029142029000F0E280FFE708989A
:101F5000016801207022C4F202029142029000F056
:101F6000D780FFE70898016801208822C4F20202A6
:101F70009142029000F0CC80FFE7089801680120B0
:101F8000A022C4F202029142029000F0C180FFE759
:101F9000089801680120B822C4F20202914202901E
:101FA00000F0B680FFE708980168012040F2104277
:101FB000C4F202029142029000F0AA80FFE7089862
:101FC0000168012040F22842C4F2020291420290CC
:101FD00000F09E80FFE708980168012040F240422F
:101FE000C4F202029142029000F09280FFE708984A
:101FF0000168012040F25842C4F20202914202906C
:1020000000F08680FFE708980168012040F27042E6
:10201000C4F20202914202907AD0FFE70898016868
:10202000012040F28842C4F20202914202906FD035
:10203000FFE708980168012040F2A042C4F20202C2
:102040009142029064D0FFE708980168012040F2B5
:10205000B842C4F202029142029059D0FFE70898B8
:102060000168012045F20842C5F602029142029041
:102070004ED0FFE708980168012045F21C42C5F6E2
:1020800002029142029043D0FFE7089801680120C4
:1020900045F23042C5F602029142029038D0FFE785
:1020A00008980168012045F24442C5F602029142B7
:1020B00002902DD0FFE708980168012045F25842B0
:1020C000C5F602029142029022D0FFE7089801680B
:1020D000012045F26C42C5F602029142029017D0EF
:1020E000FFE708980168012045F28042C5F6020228
:1020F000914202900CD0FFE7089800684AF66C31D4
:10210000CAF2FD710844B0FA80F040090290FFE77E
:102110000298C00770B1FFE70898416E806E486072
:102120000898C06E28B1FFE70898016F406F4860BB
:10213000FFE7FFE70898016801201022C4F20202BD
:102140009142019000F0A380FFE708980168012008
:102150002822C4F202029142019000F09880FFE729
:102160000898016801204022C4F2020291420190C5
:1021700000F08D80FFE70898016801205822C4F222
:1021800002029142019000F08280FFE70898016806
:1021900001207022C4F202029142019077D0FFE741
:1021A0000898016801208822C4F20202914201903D
:1021B0006DD0FFE7089801680120A022C4F2020256
:1021C0009142019063D0FFE7089801680120B8228E
:1021D000C4F202029142019059D0FFE708980168C9
:1021E000012040F21042C4F20202914201904ED00E
:1021F000FFE708980168012040F22842C4F2020279
:102200009142019043D0FFE708980168012040F215
:102210004042C4F202029142019038D0FFE7089890
:102220000168012040F25842C4F20202914201903A
:102230002DD0FFE708980168012040F27042C4F2F7
:1022400002029142019022D0FFE708980168012024
:1022500040F28842C4F202029142019017D0FFE797
:1022600008980168012040F2A042C4F202029142A3
:1022700001900CD0FFE7089800684FF64831CBF684
:10228000FD710844B0FA80F040090190FFE7019821
:10229000C00750B3FFE70898C06D00F01F013F2052
:1022A00088400499886008980168086820F48020B4
:1022B000086005980899096848600898806840286F
:1022C00009D1FFE706980899096888600798089976
:1022D0000968C86008E00798089909688860069846
:1022E00008990968C860FFE782E008980168012042
:1022F00045F20842C5F60202914200904ED0FFE737
:1023000008980168012045F21C42C5F6020291427C
:10231000009043D0FFE708980168012045F2304261
:10232000C5F602029142009038D0FFE70898016894
:10233000012045F24442C5F60202914200902DD0A0
:10234000FFE708980168012045F25842C5F60202ED
:102350009142009022D0FFE708980168012045F2E1
:102360006C42C5F602029142009017D0FFE7089830
:102370000168012045F28042C5F6020291420090B8
:102380000CD0FFE7089800684AF66C31CAF2FD717C
:102390000844B0FA80F040090090FFE70098C007B9
:1023A00020B3FFE70898C06D00F01F0101208840AE
:1023B00003994860059808990968486008988068FA
:1023C000402809D1FFE706980899096888600798AE
:1023D00008990968C86008E0079808990968886042
:1023E000069808990968C860FFE700E0FFE7FFE783
:1023F00009B070470000000080B584B003900291DE
:1024000001920398006801998968884201D0FFE72A
:1024100054E00298007800090199487602984178C2
:10242000807840EA0120019948830299C8780979A7
:10243000000140EA111001998883029801794079DE
:1024400001F00F0140EA01200199C8830199C88B6E
:10245000D1ED050AB1EE600A0C2100911BF02CFFB2
:10246000019880ED0A0A0199488BD1ED030AB1EE7B
:10247000600A10211BF020FF0099019880ED080AE6
:10248000019A908BD2ED040AB1EE600A1BF014FFA2
:10249000019880ED090A0298807900EE100AB8EEE2
:1024A000400A019880ED0B0A0298C07900EE100AEC
:1024B000B8EE400A019880ED0C0AFFE704B080BD39
:1024C000704700000000000080B582B0019006F067
:1024D0005FFD0090FFE706F05BFD0099401A01994F
:1024E000884201D2FFE7F6E702B080BD000000009D
:1024F00080B582B001900EF0A7FB0090FFE70EF0D0
:10250000A3FB0099401A0199884201D2FFE7F6E740
:1025100002B080BD0000000080B582B00190FFE7EE
:1025200040F27440C2F2000012F002FA01201BF0E7
:1025300047F9F5E70000000081B0EFF3108072B6B4
:102540000090FFE7FEE7000080B54BF2C050C2F2FA
:10255000000005F049FC80BD80B54BF2C050C2F2CE
:10256000000005F041FC80BD80B584B0039002916D
:102570000398029940F22C02C2F200020192FFF786
:1025800023F9019A039802992432FFF71DF9019A61
:10259000039802994832FFF717F9019A03980299B4
:1025A0006C32FFF711F904B080BD0000000000009C
:1025B00080B54BF26060C2F2000005F015FC80BDF2
:1025C00080B54BF26060C2F2000005F00DFC80BDEA
:1025D00080B584B0039002910398029940F2F4020E
:1025E000C2F200020192FFF707FF019A03980299D5
:1025F0003832FFF701FF019A039802997032FFF712
:10260000FBFE019A03980299A832FFF7F5FE04B089
:1026100080BD00000000000080B54BF20070C2F2E7
:10262000000005F0E1FB80BD80B54BF20070C2F206
:10263000000005F0D9FB80BD82B00190009102B08E
:10264000704700000000000084B002900298406BC8
:10265000009002980068D0F884004FF6FC7188431F
:10266000009940EA810002990968C1F88400029843
:102670000068D0F8840020F47F00029A1168926B01
:1026800040EA0240C1F884000298816B0098084437
:10269000009002980068D0F888006FF38F000099CE
:1026A00040EA810002990968C1F888000298006830
:1026B000D0F8880020F4FE00029A1168D26B40EA3C
:1026C0000240C1F888000298C16B009800EB4100FD
:1026D000009002980068D0F8A0006FF38F00009976
:1026E00040EA810002990968C1F8A00002980068D8
:1026F000D0F8A00020F4FE00029A1168126C40EAA3
:102700000240C1F8A0000299086C496C009A00FBD5
:102710000120009002980068D0F8B0006FF38F009D
:10272000009940EA810002990968C1F8B000029856
:102730000068D0F8B00020F4FE00029A1168926C94
:1027400040EA0240C1F8B0000299886CC96C009A56
:1027500000FB0120009002980068D0F8AC006FF3F5
:102760008F00009940EA810002990968C1F8AC0025
:102770000299086D496D009A00FB012000900298B3
:102780000068D0F8F0006FF38F00009940EA8100F4
:1027900002990968C1F8F00002980068D0F8F000CA
:1027A00020F47C10029A1168926D40EA0240C1F850
:1027B000F0000298816D009800EB410000900298B3
:1027C0000068D0F8C0006FF38F00009940EA8100E4
:1027D00002990968C1F8C00002980068D0F8C000EA
:1027E00020F47C10029A1168D26D40EA0240C1F8D0
:1027F000C00002980068D0F8C00020F07C50029A17
:102800001168126E40EA0260C1F8C00002994A6B7A
:102810004AF60040C4F2000000EB8200C86602994C
:102820008A6BC86E00EB820008670299CA6B086F5A
:1028300000EBC200486702990A6C4B6C486F5A4320
:1028400000EB8200886702998A6CCB6C886F5A43D0
:1028500000EB8200C86702990A6D4B6DC86F5A433E
:1028600000EB8200C1F8800002998A6DD1F88000E7
:1028700000EBC200C1F884000299CA6D8B6ED1F8DA
:1028800084005A4300EB8200C1F8880002990A6E66
:102890008B6ED1F888005A4300EB8200C1F890009B
:1028A0000298D0F890004DF2FD31C4F20001884248
:1028B0000FD3FFE70299D1F89C0040F02000C1F847
:1028C0009C000299032081F8980001208DF80F00E8
:1028D00017E00298C06E0190FFE701980299D1F8C5
:1028E0009010884208D2FFE7019900200860FFE7B6
:1028F000019804300190F0E7FFE700208DF80F0009
:10290000FFE79DF80F0004B07047000000000000D2
:1029100088B007900691059204930698406848B9DC
:10292000FFE70698016882680069104340EA814029
:10293000039009E006980168826800691043084323
:1029400040F080400390FFE70698D0F820C0C168AF
:1029500042698369C06940EA0C601843104340EA49
:10296000014002900798826ED0F884000499514388
:1029700000EB8100019003980199086001980430F0
:10298000019002980199086001980430019000209C
:102990000090FFE700980699CA684FF6C801C0F694
:1029A0000101895C88420DD2FFE7059800994058E3
:1029B00001990860019804300190FFE70098043005
:1029C0000090E7E708B0704785B08DED030ACDEDC4
:1029D000020A8DED011A9DED010A9DED021AB4EE79
:1029E000410AF1EE10FA03DAFFE70398049049E098
:1029F0009DED010A9DED021A30EE410A8DED000AAF
:102A00009DED030A9DED011AB4EE410AF1EE10FAB4
:102A100015DDFFE7FFE79DED001A9DED030A30EE9F
:102A2000410A8DED030AFFE79DED030A9DED011AB2
:102A3000B4EE410AF1EE10FAEDDCFFE71FE09DED88
:102A4000030A9DED021AB4EE410AF1EE10FA15DA0E
:102A5000FFE7FFE79DED001A9DED030A30EE010A46
:102A60008DED030AFFE79DED030A9DED021AB4EE1A
:102A7000410AF1EE10FAEDDBFFE7FFE7FFE703980D
:102A80000490FFE79DED040A05B0704700000000C8
:102A900084B08DED030A9DED030AB6EE001A20EE18
:102AA000010A8DED020A03980190019800900099A7
:102AB00045F68620C5F63770A0EB610000900098BF
:102AC00001909DED011A9DED020A20EE012ABFEE54
:102AD000080AA2EE010A20EE410A8DED010A9DEDE1
:102AE000010A04B07047000084B002900191ADF873
:102AF0000220029828B9FFE74FF6FF70ADF80E00EC
:102B000021E0FFE70198411E0191B8B1FFE702986B
:102B1000411C029100788DF80100BDF802109DF86B
:102B200001004840C2B24FF65E20C0F6010030F806
:102B3000120080EA1120ADF80200E3E7BDF80200C0
:102B4000ADF80E00FFE7BDF80E0004B070470000BE
:102B500083B0029001918DF80320FFE70198411E98
:102B6000019198B1FFE79DF8030002994A1C029277
:102B7000097848408DF802009DF802104FF2B870B5
:102B8000C0F60100405C8DF80300E7E79DF8030004
:102B900003B070470000000080B584B04EF600001E
:102BA000C1F6F170006803904EF60400C1F6F170B2
:102BB000006802904EF60800C1F6F17000680190BE
:102BC0000199039808440390039888B1FFE703989C
:102BD00040F23C41C2F200010091023108220EF0A5
:102BE0005FFA00990298123104220EF059FAFFE7B9
:102BF00004B080BD0000000080B586B00490039151
:102C0000029200200090FFE7049890F85C000128F1
:102C100004D1FFE702208DF817005BE00499012042
:102C200081F85C00FFE7FFE70498FDF7B1FD8DF840
:102C300007009DF80700E0BBFFE70498006E40F036
:102C4000020020F4885004990866049800680399EB
:102C5000029A0FF0A5F9FFE7049800680EF0BCFF98
:102C6000F0B1FFE700980130009000984FF60001A6
:102C7000C2F2C351884212D3FFE70498006E40F0BD
:102C8000100020F0020004990866FFE70499002074
:102C900081F85C00FFE701208DF817001AE0DBE700
:102CA0000498006E40F0010020F0020004990866CC
:102CB00005E00499086E40F010000866FFE7FFE7A2
:102CC0000499002081F85C00FFE79DF807008DF86B
:102CD0001700FFE79DF8170006B080BD0000000058
:102CE00080B5AAB02890279100208DF89B002798E6
:102CF000006808B1FFE7FFE7FFE7289890F85C005D
:102D0000012804D1FFE702208DF8A7002DE12899C2
:102D1000012081F85C00FFE7FFE70020219022906E
:102D20002898006842F20001C4F20201884206D1EC
:102D3000FFE742F20010C4F20200099002E0002016
:102D40000990FFE7099878B9FFE72899086E40F0E5
:102D500020000866FFE72899002081F85C00FFE763
:102D600001208DF8A70000E109980EF06DFF089092
:102D7000289800680EF068FF002840F0E280FFE726
:102D80000898002840F0DD80FFE7289801680120BE
:102D900042F20002C4F20202914207900CD0FFE717
:102DA000289800684DF60071CBF6FD710844B0FA22
:102DB00080F040090790FFE70798C10746F200300E
:102DC000C5F6020000291CBF42F20030C4F2020026
:102DD00025902798006800285ED0FFE72598806836
:102DE00020F440402799496808432599886028982D
:102DF0000168012042F20002C4F2020291420690F0
:102E00000CD0FFE7289800684DF60071CBF6FD71F5
:102E10000844B0FA80F040090690FFE70698C10721
:102E200046F20030C5F6020000291CBF42F2003015
:102E3000C4F2020042F20031C4F20201884212D10F
:102E4000FFE742F20000C4F202000EF0E5FE04903B
:102E500042F20010C4F202000EF0DEFE01460498B9
:102E60000843059007E046F20000C5F602000EF0A8
:102E7000D3FE0590FFE7059868B9FFE725988068BD
:102E800040F61F718843279A1168926811430843DE
:102E900025998860FFE753E02599886820F4404031
:102EA000886028980168012042F20002C4F2020200
:102EB000914203900CD0FFE7289800684DF600710E
:102EC000CBF6FD710844B0FA80F040090390FFE7AB
:102ED0000398C10746F20030C5F6020000291CBF66
:102EE00042F20030C4F2020042F20031C4F20201A8
:102EF000884212D1FFE742F20000C4F202000EF055
:102F00008BFE019042F20010C4F202000EF084FE2B
:102F1000014601980843029007E046F20000C5F61A
:102F200002000EF079FE0290FFE7029838B9FFE741
:102F30002599886840F61F7290438860FFE7FFE795
:102F400008E02899086E40F02000086601208DF8FE
:102F50009B00FFE7FFE72899002081F85C00FFE76E
:102F60009DF89B008DF8A700FFE79DF8A7002AB009
:102F700080BD00000000000080B5CCB02A902991EF
:102F800000208DF8A30025902A9890F8440001288D
:102F900001D1FFE70BE02A98006846F20001C5F670
:102FA0000201884201D1FFE700E0FFE7FFE729982F
:102FB000C0680021C4F2FF71884201D0FFE71EE023
:102FC0002A98006842F20001C4F20201884201D14D
:102FD000FFE7FFE72A98006842F20011C4F20201FD
:102FE000884201D1FFE7FFE72A98006846F2000116
:102FF000C5F60201884201D1FFE7FFE7FFE7FFE7DF
:103000002A9890F85C00012805D1FFE702208DF88E
:10301000AF0000F07DBD2A99012081F85C00FFE738
:10302000FFE72A9800680EF007FE002840F05C8554
:10303000FFE72998C0780006002837D4FFE72A98D0
:10304000006846F20001C5F6020188422DD0FFE774
:1030500029980068000330B9FFE729980068C0F399
:103060008460229015E02998006890FAA0F04A90B8
:103070004A9820B9FFE720208DF82F0105E04A98F3
:10308000B0FA80F08DF82F01FFE79DF82F01229014
:10309000FFE7229800F01F01012000FA01F22A98B0
:1030A0000168C8691043C861FFE7FFE72A98006814
:1030B00029990A6849680EF003FE2A9800680EF004
:1030C000BBFD24902A9800680EF07EFD2390249882
:1030D000002840F05A82FFE72398002840F05582EC
:1030E000FFE72A980068299A116892680EF018FE86
:1030F0002A98006846F20001C5F6020188420BD109
:10310000FFE7299840692A990968C96801F0180100
:1031100089088840279038E041F20000C5F6004059
:10312000006800F07040B0F1805F0BD1FFE7299894
:1031300040692A990968C96801F01C01490888405A
:1031400021901FE02A980068C068C00600280BD4B0
:10315000FFE7299840692A990968C96801F01C01AC
:103160004908884020900AE0299840692A9909680E
:10317000C96801F01001490888402090FFE72098B5
:103180002190FFE721982790FFE7299800690428FC
:1031900041D0FFE72A98006829990A680969279BA6
:1031A0000EF046FE2A98006846F20001C5F60201BC
:1031B000884215D1FFE72A980068299A1169D269D7
:1031C0000EF086FE2A980068299A116992F820204C
:1031D000013AB2FA82F2520952060EF059FE19E093
:1031E0002A980068299A116992F82120013AB2FAC6
:1031F00082F25209D2070EF08BFE2A980068299AB3
:103200001169127E013AB2FA82F25209D2020EF02C
:10321000FBFDFFE7B8E12A98006846F20001C5F619
:103220000201884240F06681FFE72A980068002189
:103230000EF0BAFC000348B9FFE72A9800680021A5
:103240000EF0B2FCC0F384601F9018E02A9800686A
:1032500000210EF0A9FC90FAA0F04890489820B9FF
:10326000FFE720208DF8270105E04898B0FA80F0AC
:103270008DF82701FFE79DF827011F90FFE71F98B2
:103280001E9029980068000330B9FFE7299800686C
:10329000C0F384601D9015E02998006890FAA0F0B2
:1032A0004690469820B9FFE720208DF81F0105E0E1
:1032B0004698B0FA80F08DF81F01FFE79DF81F01D6
:1032C0001D90FFE71E981D99884207D1FFE72A98B5
:1032D0000068002211460EF03BFEFFE72A980068C6
:1032E00001210EF061FC000348B9FFE72A9800684D
:1032F00001210EF059FCC0F384601C9018E02A985C
:10330000006801210EF050FC90FAA0F0449044981F
:1033100020B9FFE720208DF8170105E04498B0FAA6
:1033200080F08DF81701FFE79DF817011C90FFE76B
:103330001C981B9029980068000330B9FFE7299872
:103340000068C0F384601A9015E02998006890FA2C
:10335000A0F04290429820B9FFE720208DF80F019D
:1033600005E04298B0FA80F08DF80F01FFE79DF874
:103370000F011A90FFE71B981A99884207D1FFE7BF
:103380002A980068012100220EF0E2FDFFE72A984A
:10339000006802210EF008FC000348B9FFE72A98F4
:1033A000006802210EF000FCC0F38460199018E060
:1033B0002A98006802210EF0F7FB90FAA0F04090E6
:1033C000409820B9FFE720208DF8070105E04098DC
:1033D000B0FA80F08DF80701FFE79DF8070119901A
:1033E000FFE71998189029980068000330B9FFE7A3
:1033F00029980068C0F38460179015E02998006848
:1034000090FAA0F03E903E9820B9FFE720208DF87A
:10341000FF0005E03E98B0FA80F08DF8FF00FFE76E
:103420009DF8FF001790FFE718981799884207D179
:10343000FFE72A980068022100220EF089FDFFE7CD
:103440002A98006803210EF0AFFB000348B9FFE79C
:103450002A98006803210EF0A7FBC0F38460169041
:1034600018E02A98006803210EF09EFB90FAA0F065
:103470003C903C9820B9FFE720208DF8F70005E04C
:103480003C98B0FA80F08DF8F700FFE79DF8F70060
:103490001690FFE71698159029980068000330B938
:1034A000FFE729980068C0F38460149015E029981C
:1034B000006890FAA0F03A903A9820B9FFE72020EF
:1034C0008DF8EF0005E03A98B0FA80F08DF8EF0043
:1034D000FFE79DF8EF001490FFE7159814998842D4
:1034E00007D1FFE72A980068032100220EF030FD83
:1034F000FFE748E02A980068006E00F0F84029993C
:103500000968B0EB816F07D1FFE72A980168086E60
:1035100020F000400866FFE72A980068406E00F03F
:10352000F84029990968B0EB816F07D1FFE72A9825
:103530000168486E20F000404866FFE72A9800685E
:10354000806E00F0F84029990968B0EB816F07D1CF
:10355000FFE72A980168886E20F000408866FFE740
:103560002A980068C06E00F0F84029990968B0EB0D
:10357000816F07D1FFE72A980168C86E20F00040EC
:10358000C866FFE7FFE7FFE7FFE72A9800680EF04D
:103590003BFB002840F0A782FFE72A980068299AA1
:1035A0001168D2680EF0D8FB2998C0680021C4F2D7
:1035B000FF71884240F03381FFE72A98006813903A
:1035C00029980068000330B9FFE729980068C0F324
:1035D0008460129015E02998006890FAA0F0389065
:1035E000389820B9FFE720208DF8E70005E03898EB
:1035F000B0FA80F08DF8E700FFE79DF8E700129041
:10360000FFE71298013000F01F0009287DD8FFE77E
:1036100029980068000330B9FFE729980068C0F3D3
:103620008460119015E02998006890FAA0F0369017
:10363000369820B9FFE720208DF8DF0005E03698A6
:10364000B0FA80F08DF8DF00FFE79DF8DF00119001
:10365000FFE71198013000F01F00800610902998B4
:103660000068000330B9FFE729980068C0F3846060
:103670000F9015E02998006890FAA0F034903498E3
:1036800020B9FFE720208DF8D70005E03498B0FA84
:1036900080F08DF8D700FFE79DF8D7000F90FFE787
:1036A00010980F99013101F01F0201219140084348
:1036B0000E9029980068000330B9FFE72998006848
:1036C000C0F384600D9015E02998006890FAA0F08E
:1036D0003290329820B9FFE720208DF8CF0005E026
:1036E0003298B0FA80F08DF8CF00FFE79DF8CF0058
:1036F0000D90FFE70E980D99013101F01F0101EBCC
:10370000410140EA01500C9082E0299800680003D2
:1037100030B9FFE729980068C0F384600B9015E08A
:103720002998006890FAA0F03090309820B9FFE70F
:1037300020208DF8C70005E03098B0FA80F08DF8B1
:10374000C700FFE79DF8C7000B90FFE70B9801301B
:1037500000F01F0080060A9029980068000330B925
:10376000FFE729980068C0F38460099015E0299864
:10377000006890FAA0F02E902E9820B9FFE7202044
:103780008DF8BF0005E02E98B0FA80F08DF8BF00EC
:10379000FFE79DF8BF000990FFE70A9809990131FA
:1037A00001F01F0201219140084308902998006808
:1037B000000330B9FFE729980068C0F384600790E0
:1037C00015E02998006890FAA0F02C902C9820B968
:1037D000FFE720208DF8B70005E02C98B0FA80F0C4
:1037E0008DF8B700FFE79DF8B7000790FFE708994D
:1037F0000798013000F01F0000EB40020020CFF6D8
:10380000206000EB0250084340F000700C90FFE78E
:1038100013980C99299A92680EF082FAFFE729987A
:10382000C0780006002840F15D81FFE72A98016812
:10383000012042F20002C4F20202914206900CD032
:10384000FFE72A9800684DF60071CBF6FD71084439
:10385000B0FA80F040090690FFE70698C10746F2EB
:103860000030C5F6020000291CBF42F20030C4F24D
:1038700002000EF089F926902A9801684FF00100A5
:1038800042F20002C4F20202914205900CD0FFE71E
:103890002A9800684DF60071CBF6FD710844B0FA25
:1038A00080F040090590FFE70598C10746F2003017
:1038B000C5F6020000291CBF42F20030C4F202002B
:1038C00042F20031C4F20201884212D1FFE742F213
:1038D0000000C4F202000EF097F9039042F20010CB
:1038E000C4F202000EF090F90146039808430490D8
:1038F00007E046F20000C5F602000EF085F90490DC
:10390000FFE70498002840F0E380FFE7299800686B
:103910000021CCF25271884255D1FFE79DF89A0000
:10392000000600284FD4FFE72A98006846F20001FD
:10393000C5F60201884245D1FFE72A9801680120B7
:1039400042F20002C4F20202914202900CD0FFE760
:103950002A9800684DF60071CBF6FD710844B0FA64
:1039600080F040090290FFE70298C10746F200305C
:10397000C5F6020000291CBF42F20030C4F202006A
:10398000269941F400010EF02FFA40F26430C2F2A1
:10399000000000684FEA901042F66351C0F23E51B9
:1039A000A0FB01104FEA90114FF0020000EB410024
:1039B0002590FFE7259820B1FFE72598013825904D
:1039C000F8E7FFE783E0299800680021CCF2213175
:1039D000884238D1FFE79DF89B00C00798BBFFE7FE
:1039E0002A98006846F20001C5F60201884229D1F2
:1039F000FFE72A980168012042F20002C4F20202A5
:103A0000914201900CD0FFE72A9800684DF60071B2
:103A1000CBF6FD710844B0FA80F040090190FFE751
:103A20000198C10746F20030C5F6020000291CBF0C
:103A300042F20030C4F20200269941F080710EF08B
:103A4000D3F9FFE742E0299800680021CCF68431E1
:103A5000884239D1FFE79DF89A004006002833D408
:103A6000FFE72A98006846F20001C5F60201884285
:103A700029D1FFE72A980168012042F20002C4F22E
:103A80000202914200900CD0FFE72A9800684DF6A0
:103A90000071CBF6FD710844B0FA80F04009009047
:103AA000FFE70098C10746F20030C5F60200002982
:103AB0001CBF42F20030C4F20200269941F480019A
:103AC0000EF092F9FFE700E0FFE7FFE7FFE708E00D
:103AD0002A99086E40F02000086601208DF8A300A6
:103AE000FFE7FFE7FFE708E02A99086E40F02000B3
:103AF000086601208DF8A300FFE7FFE72A99002060
:103B000081F85C00FFE79DF8A3008DF8AF00FFE7A8
:103B10009DF8AF004CB080BD81B0009001B07047FF
:103B200081B0009001B0704781B0009001B0704743
:103B300010B590B00E9000208DF837000A900E98C6
:103B400020B9FFE701208DF83F006EE20E98006972
:103B500040B1FFE70E9890F82000012801D1FFE75F
:103B6000FFE7FFE70E98006E50B9FFE70E9800F0F0
:103B700063FA0E99002048660E9981F85C00FFE711
:103B80000E9800680EF030F828B1FFE70E98006834
:103B90000DF0C2FFFFE70E9800680EF045F8E8B997
:103BA000FFE70E9800680DF0DFFF40F26430C2F2CC
:103BB00000000068800942F66351C0F23E51A0FB4C
:103BC0000101012000EB91100A90FFE70A9820B153
:103BD000FFE70A9801380A90F8E7FFE70E980068B7
:103BE0000EF022F870B9FFE70E99086E40F0100051
:103BF00008660E99486E40F00100486601208DF875
:103C00003700FFE70E9800680EF016F80B900E983C
:103C1000006EC006002800F1FA81FFE70B9800282B
:103C200040F0F581FFE70E98006E40F0020020F4AE
:103C300080700E9908660E9800680DF0E5FF002868
:103C400070D1FFE70E980168012042F20002C4F231
:103C50000202914207900CD0FFE70E9800684DF6E3
:103C60000071CBF6FD710844B0FA80F0400907906E
:103C7000FFE70798C10746F20030C5F602000029A9
:103C80001CBF42F20030C4F2020042F20031C4F222
:103C90000201884212D1FFE742F20000C4F20200A2
:103CA0000DF0B2FF059042F20010C4F202000DF0D8
:103CB000ABFF014605980843069007E046F2000076
:103CC000C5F602000DF0A0FF0690FFE7069840BB86
:103CD000FFE70E980168012042F20002C4F20202DE
:103CE000914204900CD0FFE70E9800684DF60071E9
:103CF000CBF6FD710844B0FA80F040090490FFE76C
:103D00000498C10746F20030C5F6020000291CBF26
:103D100042F20030C4F202000E9949680EF054F8E5
:103D2000FFE7FFE70E98006846F20001C5F60201C2
:103D300088423AD1FFE70E9A517ED06B40EA41317A
:103D40009068D26811430391082803D1FFE700204F
:103D500002901DE00E9880680C2803D1FFE7042034
:103D6000019012E00E9880681C2803D1FFE708201C
:103D7000009007E00E9881680020182908BF1C20D9
:103D80000090FFE700980190FFE701980290FFE79D
:103D90000398029901F00C0140EA41000E9991F854
:103DA000201040EA01400C900CE00E994A7EC86B4E
:103DB00040EA42308A68104391F8201040EA0140FE
:103DC0000C90FFE70E9890F8200001280BD1FFE738
:103DD0000E98416A0020CFF6FE7000EB41410C982E
:103DE00008430C90FFE70E98806A50B1FFE70E99E8
:103DF000886AC96A00F4787001430C9808430C90F3
:103E0000FFE70E98006846F20001C5F602018842FD
:103E100018D1FFE70E980068C06844F20701CFF69A
:103E2000F07108400C9908430E990968C8600E9813
:103E30000068006920F040600E9A1168526B1043D0
:103E400008610DE00E980068C0684CF20301CFF6DF
:103E5000F07108400C9908430E990968C860FFE7A3
:103E60000E9800680DF0E8FE09900E9800680DF0BD
:103E7000ABFE08900998002840F0A880FFE708985A
:103E8000002840F0A380FFE70E98006846F200018A
:103E9000C5F60201884209D1FFE70E99087E91F824
:103EA0003810800340EA41000C9006E00E98017E35
:103EB000006B40EA81300C90FFE70E980068C06804
:103EC00044F2030188430C9908430E990968C860BD
:103ED0000E9890F84400012859D1FFE70E98006829
:103EE00046F20001C5F60201884201D1FFE700E079
:103EF000FFE70E98806A20B1FFE70E98C06A08B904
:103F0000FFE7FFE70E98006846F20001C5F60201E0
:103F100088421BD1FFE70E98006800694FF61E012A
:103F2000CFF6004100EA01020E9B1968986CD3F8A5
:103F30004CE0D3F850C040EA0E0040EA0C005B6D44
:103F40001843104340F0010008611FE00E9800681C
:103F500000694FF61E01CFF6004100EA01020E9BF8
:103F600019689C6CD3F84CE0D3F850C00020CFF611
:103F7000FF7000EB044040EA0E0040EA0C005B6D6D
:103F80001843104340F001000861FFE706E00E9877
:103F90000168086920F001000861FFE70E980068D9
:103FA000006920F070400E9A1168126C104308618D
:103FB0000E98006846F20001C5F60201884204D05E
:103FC000FFE70E98FCF764FAFFE7FFE70E98006939
:103FD00001280CD1FFE70E980068006B20F00F005D
:103FE0000E9A1168D269013A1043086306E00E98F0
:103FF0000168086B20F00F000863FFE70E98006E61
:1040000040F0010020F002000E99086608E00E99C9
:10401000086E40F01000086601208DF83700FFE7B9
:104020009DF837008DF83F00FFE79DF83F0010B086
:1040300010BD00000000000080B5BAB0399000202B
:104040003890379036903590349006A8B821FCF718
:10405000A3F93998006842F20001C4F202018842D3
:104060006BD1FFE7002007904FF4002006904FF43B
:1040700000302E9006A807F07BFC18B1FFE7FEF792
:104080005BFAFFE7FFE744F2D840C5F6020001689B
:1040900041F020010160006800F0200005900598C3
:1040A000FFE7FFE744F2E040C5F60200016841F097
:1040B00004010160006800F0040004900498FFE728
:1040C000102034900320359000200190369040F667
:1040D0000000C5F6020034A904F06EFD01994AF60D
:1040E0004060C2F20000029040F2A042C4F202021C
:1040F0000260092242608160C1604FF48062026107
:104100004FF4006242614FF4005282614FF48072BA
:10411000C2610162416202F067FA18B1FFE7FEF77F
:104120000BFAFFE7FFE739984AF64061C2F2000157
:10413000816539988863FFE756E03998006846F250
:104140000001C5F6020188424DD1FFE7002007902B
:104150004FF4002006904FF400302E9006A807F090
:1041600007FC18B1FFE7FEF7E7F9FFE7FFE744F2C6
:10417000E040C5F60200016841F08071016000680E
:1041800000F0807003900398FFE74AF6B860C2F22F
:104190000000009045F20841C5F6020101601121BE
:1041A000416000218160C1604FF4806202614FF480
:1041B000006242614FF4005282614FF48072C2612A
:1041C000016202F011FA18B1FFE7FEF7B5F9FFE757
:1041D000FFE739984AF6B861C2F200018165399863
:1041E0008863FFE7FFE7FFE73AB080BD000000000B
:1041F00080B588B006900591049206980168012068
:1042000042F20002C4F20202914201900CD0FFE798
:10421000069800684DF60071CBF6FD710844B0FABF
:1042200080F040090190FFE70198C10746F2003095
:10423000C5F6020000291CBF42F20030C4F20200A1
:104240000DF0AAFC0290069800680DF0F5FC00281D
:1042500040F0C680FFE7FFE7069890F85C00012871
:1042600004D1FFE702208DF81F00C2E0069901206B
:1042700081F85C00FFE7FFE7029848B1FFE702988A
:10428000052805D0FFE70298092840F09E80FFE747
:104290000698FCF7E1FA8DF80F009DF80F00002852
:1042A00040F08B80FFE70698006E40F4807040F687
:1042B00001618843069908660698006842F2001179
:1042C000C4F20201884206D1FFE742F20000C4F2C4
:1042D0000200009003E0069800680090FFE7009855
:1042E00006990968884203D0FFE7029830B9FFE7D2
:1042F0000699086E20F480100866FFE70698006EA5
:10430000C004002806D5FFE70699486E20F0060095
:10431000486603E0069900204866FFE70698816D2D
:1043200040F27160C0F60000C8630698816D40F2EB
:104330007970C0F6000008640698816D40F24970FB
:10434000C0F60000C864069801681C200860FFE7FA
:104350000699002081F85C00FFE70698016848682C
:1043600040F0100048600698006846F20001C5F66B
:10437000020188420CD1FFE70699086891F83810CD
:1043800049000DF075FC069800680DF0E1FB05E0B2
:1043900006990868096B0DF083FCFFE70698016831
:1043A000806D4031059A049B02F0CEFD8DF80F0020
:1043B000069800680DF0A4FC06E0FFE706990020CF
:1043C00081F85C00FFE7FFE709E001208DF80F00AE
:1043D000FFE70699002081F85C00FFE7FFE703E0B4
:1043E00002208DF80F00FFE79DF80F008DF81F00E9
:1043F000FFE79DF81F0008B080BD0000000000002E
:1044000080B58AB0089004F0C3FD0490089828B9DC
:10441000FFE701208DF8270000F0AABC089890F86B
:10442000350002280ED0FFE7089980204865FFE795
:104430000899002081F83400FFE701208DF827005B
:1044400000F096BC0898016801201022C4F2020214
:104450009142039000F0A380FFE7089801680120D3
:104460002822C4F202029142039000F09880FFE7F4
:104470000898016801204022C4F202029142039090
:1044800000F08D80FFE70898016801205822C4F2EF
:1044900002029142039000F08280FFE708980168D1
:1044A00001207022C4F202029142039077D0FFE70C
:1044B0000898016801208822C4F202029142039008
:1044C0006DD0FFE7089801680120A022C4F2020223
:1044D0009142039063D0FFE7089801680120B82259
:1044E000C4F202029142039059D0FFE70898016894
:1044F000012040F21042C4F20202914203904ED0D9
:10450000FFE708980168012040F22842C4F2020245
:104510009142039043D0FFE708980168012040F2E0
:104520004042C4F202029142039038D0FFE708985B
:104530000168012040F25842C4F202029142039005
:104540002DD0FFE708980168012040F27042C4F2C4
:1045500002029142039022D0FFE7089801680120EF
:1045600040F28842C4F202029142039017D0FFE762
:1045700008980168012040F2A042C4F20202914270
:1045800003900CD0FFE7089800684FF64831CBF64F
:10459000FD710844B0FA80F040090390FFE70398EA
:1045A000C00780B1FFE708980168086820F01E0086
:1045B000086008980168486920F080004861089800
:1045C0000068059009E008980168086820F00E006E
:1045D0000860089800680590FFE7089801680120C6
:1045E0001022C4F202029142029000F00381FFE720
:1045F0000898016801202822C4F202029142029028
:1046000000F0F880FFE70898016801204022C4F21A
:1046100002029142029000F0ED80FFE708980168E5
:1046200001205822C4F202029142029000F0E2807E
:10463000FFE70898016801207022C4F2020291424B
:10464000029000F0D780FFE70898016801208822D7
:10465000C4F202029142029000F0CC80FFE7089879
:1046600001680120A022C4F202029142029000F0EF
:10467000C180FFE7089801680120B822C4F2020255
:104680009142029000F0B680FFE70898016801208F
:1046900040F21042C4F202029142029000F0AA805D
:1046A000FFE708980168012040F22842C4F20202A4
:1046B0009142029000F09E80FFE708980168012077
:1046C00040F24042C4F202029142029000F0928015
:1046D000FFE708980168012040F25842C4F2020244
:1046E0009142029000F08680FFE70898016801205F
:1046F00040F27042C4F20202914202907AD0FFE787
:1047000008980168012040F28842C4F202029142F6
:1047100002906FD0FFE708980168012040F2A042A4
:10472000C4F202029142029064D0FFE70898016847
:10473000012040F2B842C4F202029142029059D0E4
:10474000FFE708980168012045F20842C5F6020219
:10475000914202904ED0FFE708980168012045F28F
:104760001C42C5F602029142029043D0FFE708982E
:104770000168012045F23042C5F6020291420290E2
:1047800038D0FFE708980168012045F24442C5F699
:104790000202914202902DD0FFE7089801680120A3
:1047A00045F25842C5F602029142029022D0FFE73C
:1047B00008980168012045F26C42C5F60202914258
:1047C000029017D0FFE708980168012045F2804267
:1047D000C5F60202914202900CD0FFE708980068EB
:1047E0004AF66C31CAF2FD710844B0FA80F0400913
:1047F0000290FFE70298C00738B1FFE70898016E02
:10480000086820F480700860FFE7089800681021AD
:10481000C4F20201884200F08180FFE70898006836
:104820002821C4F20201884278D0FFE70898006886
:104830004021C4F20201884270D0FFE70898006866
:104840005821C4F20201884268D0FFE70898006846
:104850007021C4F20201884260D0FFE70898006826
:104860008821C4F20201884258D0FFE70898006806
:10487000A021C4F20201884250D0FFE708980068E6
:10488000B821C4F20201884248D0FFE708980068C6
:1048900040F21041C4F2020188423FD0FFE708987D
:1048A000006840F22841C4F20201884236D0FFE796
:1048B0000898006840F24041C4F2020188422DD0BD
:1048C000FFE70898006840F25841C4F202018842AC
:1048D00024D0FFE70898006840F27041C4F202015A
:1048E00088421BD0FFE70898006840F28841C4F274
:1048F0000201884212D0FFE70898006840F2A04108
:10490000C4F20201884209D0FFE70898006840F22B
:10491000B841C4F20201884207D1FFE70898016854
:10492000086820F00100086006E00898016808683F
:1049300020F001000860FFE7FFE705980068C00766
:10494000C8B1FFE704F024FB0499401A062811D3EC
:10495000FFE70899202048650899032081F8350071
:10496000FFE70899002081F83400FFE701208DF867
:104970002700FDE1E1E70898016801201022C4F258
:1049800002029142019000F0A380FFE708980168BD
:1049900001202822C4F202029142019000F0988086
:1049A000FFE70898016801204022C4F20202914208
:1049B000019000F08D80FFE70898016801205822DF
:1049C000C4F202029142019000F08280FFE7089851
:1049D000016801207022C4F202029142019077D056
:1049E000FFE70898016801208822C4F20202914280
:1049F00001906DD0FFE7089801680120A022C4F261
:104A000002029142019063D0FFE7089801680120FB
:104A1000B822C4F202029142019059D0FFE70898EF
:104A20000168012040F21042C4F20202914201905A
:104A30004ED0FFE708980168012040F22842C4F2F6
:104A400002029142019043D0FFE7089801680120DB
:104A500040F24042C4F202029142019038D0FFE796
:104A600008980168012040F25842C4F202029142C3
:104A700001902DD0FFE708980168012040F27042B4
:104A8000C4F202029142019022D0FFE70898016827
:104A9000012040F28842C4F202029142019017D0F4
:104AA000FFE708980168012040F2A042C4F2020228
:104AB000914201900CD0FFE7089800684FF648310A
:104AC000CBF6FD710844B0FA80F040090190FFE791
:104AD0000198C00760B1FFE70898806D07900898BB
:104AE000C06D00F01F013F208840079988600BE0EF
:104AF0000898806D06900898C06D00F01F01012095
:104B0000884006994860FFE7089801680120102254
:104B1000C4F202029142009000F00381FFE708987E
:104B2000016801202822C4F202029142009000F0A4
:104B3000F880FFE70898016801204022C4F20202D1
:104B40009142009000F0ED80FFE708980168012095
:104B50005822C4F202029142009000F0E280FFE786
:104B60000898016801207022C4F20202914200906C
:104B700000F0D780FFE70898016801208822C4F27E
:104B800002029142009000F0CC80FFE70898016893
:104B90000120A022C4F202029142009000F0C180E4
:104BA000FFE7089801680120B822C4F2020291428E
:104BB000009000F0B680FFE708980168012040F2FD
:104BC0001042C4F202029142009000F0AA80FFE776
:104BD00008980168012040F22842C4F20202914282
:104BE000009000F09E80FFE708980168012040F2E5
:104BF0004042C4F202029142009000F09280FFE72E
:104C000008980168012040F25842C4F20202914221
:104C1000009000F08680FFE708980168012040F2CC
:104C20007042C4F20202914200907AD0FFE70898E5
:104C30000168012040F28842C4F2020291420090D1
:104C40006FD0FFE708980168012040F2A042C4F24B
:104C500002029142009064D0FFE7089801680120A9
:104C600040F2B842C4F202029142009059D0FFE7EC
:104C700008980168012045F20842C5F602029142F7
:104C800000904ED0FFE708980168012045F21C42D1
:104C9000C5F602029142009043D0FFE708980168F0
:104CA000012045F23042C5F602029142009038D010
:104CB000FFE708980168012045F24442C5F6020268
:104CC000914200902DD0FFE708980168012045F23D
:104CD0005842C5F602029142009022D0FFE70898A0
:104CE0000168012045F26C42C5F602029142009033
:104CF00017D0FFE708980168012045F28042C5F609
:104D00000202914200900CD0FFE7089800684AF632
:104D10006C31CAF2FD710844B0FA80F0400900908D
:104D2000FFE70098C007A0B1FFE70898416E806ECA
:104D300048600898C06E58B1FFE70898C16E0868CF
:104D400020F4807008600898016F406F4860FFE7AA
:104D5000FFE70899012081F83500FFE70899002056
:104D600081F83400FFE7FFE700208DF82700FFE718
:104D70009DF827000AB080BD80B586B004900498E5
:104D800020B9FFE701208DF8170046E3049890F85A
:104D90003500022807D0FFE70499802048650120EC
:104DA0008DF8170039E30498016801201022C4F23D
:104DB00002029142029000F0A380FFE7049801688C
:104DC00001202822C4F202029142029000F0988051
:104DD000FFE70498016801204022C4F202029142D8
:104DE000029000F08D80FFE70498016801205822AE
:104DF000C4F202029142029000F08280FFE7049820
:104E0000016801207022C4F202029142029077D020
:104E1000FFE70498016801208822C4F2020291424F
:104E200002906DD0FFE7049801680120A022C4F22F
:104E300002029142029063D0FFE7049801680120CA
:104E4000B822C4F202029142029059D0FFE70498BE
:104E50000168012040F21042C4F202029142029025
:104E60004ED0FFE704980168012040F22842C4F2C6
:104E700002029142029043D0FFE7049801680120AA
:104E800040F24042C4F202029142029038D0FFE761
:104E900004980168012040F25842C4F20202914293
:104EA00002902DD0FFE704980168012040F2704283
:104EB000C4F202029142029022D0FFE704980168F6
:104EC000012040F28842C4F202029142029017D0BF
:104ED000FFE704980168012040F2A042C4F20202F8
:104EE000914202900CD0FFE7049800684FF64831D9
:104EF000CBF6FD710844B0FA80F040090290FFE75C
:104F00000298C007002800F09D80FFE70499042064
:104F100081F83500049800681021C4F2020188422B
:104F200000F08180FFE7049800682821C4F20201A4
:104F3000884278D0FFE7049800684021C4F202015B
:104F4000884270D0FFE7049800685821C4F202013B
:104F5000884268D0FFE7049800687021C4F202011B
:104F6000884260D0FFE7049800688821C4F20201FB
:104F7000884258D0FFE704980068A021C4F20201DB
:104F8000884250D0FFE704980068B821C4F20201BB
:104F9000884248D0FFE70498006840F21041C4F20C
:104FA000020188423FD0FFE70498006840F22841A0
:104FB000C4F20201884236D0FFE70498006840F24C
:104FC0004041C4F2020188422DD0FFE704980068F6
:104FD00040F25841C4F20201884224D0FFE704980D
:104FE000006840F27041C4F2020188421BD0FFE722
:104FF0000498006840F28841C4F20201884212D04D
:10500000FFE70498006840F2A041C4F20201884220
:1050100009D0FFE70498006840F2B841C4F20201E9
:10502000884207D1FFE704980168086820F0010072
:10503000086006E004980168086820F00100086034
:10504000FFE7E5E104980168086820F00E000860B9
:10505000049800681021C4F20201884200F08180A7
:10506000FFE7049800682821C4F20201884278D042
:10507000FFE7049800684021C4F20201884270D022
:10508000FFE7049800685821C4F20201884268D002
:10509000FFE7049800687021C4F20201884260D0E2
:1050A000FFE7049800688821C4F20201884258D0C2
:1050B000FFE704980068A021C4F20201884250D0A2
:1050C000FFE704980068B821C4F20201884248D082
:1050D000FFE70498006840F21041C4F202018842E0
:1050E0003FD0FFE70498006840F22841C4F2020173
:1050F000884236D0FFE70498006840F24041C4F28D
:10510000020188422DD0FFE70498006840F2584120
:10511000C4F20201884224D0FFE70498006840F2FC
:105120007041C4F2020188421BD0FFE70498006876
:1051300040F28841C4F20201884212D0FFE704988D
:10514000006840F2A041C4F20201884209D0FFE7A2
:105150000498006840F2B841C4F20201884207D1C5
:10516000FFE704980168086820F00100086006E085
:1051700004980168086820F001000860FFE70498BF
:10518000016801201022C4F202029142019000F055
:105190000381FFE70498016801202822C4F202027B
:1051A0009142019000F0F880FFE704980168012027
:1051B0004022C4F202029142019000F0ED80FFE72C
:1051C0000498016801205822C4F202029142019021
:1051D00000F0E280FFE70498016801207022C4F229
:1051E00002029142019000F0D780FFE70498016825
:1051F00001208822C4F202029142019000F0CC808A
:10520000FFE7049801680120A022C4F20202914243
:10521000019000F0C180FFE7049801680120B822E6
:10522000C4F202029142019000F0B680FFE70498B8
:105230000168012040F21042C4F202029142019042
:1052400000F0AA80FFE704980168012040F228429C
:10525000C4F202029142019000F09E80FFE70498A0
:105260000168012040F24042C4F2020291420190E2
:1052700000F09280FFE704980168012040F2584254
:10528000C4F202029142019000F08680FFE7049888
:105290000168012040F27042C4F202029142019082
:1052A0007AD0FFE704980168012040F28842C4F2F6
:1052B0000202914201906FD0FFE70498016801203B
:1052C00040F2A042C4F202029142019064D0FFE792
:1052D00004980168012040F2B842C4F202029142EF
:1052E000019059D0FFE704980168012045F2084277
:1052F000C5F60202914201904ED0FFE70498016882
:10530000012045F21C42C5F602029142019043D0B1
:10531000FFE704980168012045F23042C5F6020219
:105320009142019038D0FFE704980168012045F2CE
:105330004442C5F60202914201902DD0FFE7049845
:105340000168012045F25842C5F6020291420190DF
:1053500022D0FFE704980168012045F26C42C5F6AF
:1053600002029142019017D0FFE7049801680120E2
:1053700045F28042C5F60202914201900CD0FFE74F
:10538000049800684AF66C31CAF2FD710844B0FA1C
:1053900080F040090190FFE70198C00728B3FFE7BC
:1053A0000498016E086820F4807008600498806D8D
:1053B00003900498C06D00F01F01012088400399FC
:1053C00048600498416E806E48600498C06E58B181
:1053D000FFE70498C16E086820F4807008600498A4
:1053E000016F406F4860FFE7FFE70499012081F8F3
:1053F0003500FFE70499002081F83400FFE70498A6
:10540000006D20B1FFE70498016D8847FFE7FFE7D3
:10541000FFE700208DF81700FFE79DF8170006B0A2
:1054200080BD00000000000080B590B00F9000200B
:105430000B9040F26430C2F20000006848F2B511EF
:10544000C1F64E31A0FB0110800A0A900F98806DC2
:1054500009900F98806D0890099800680E90089840
:1054600000680D900F98016801201022C4F202021A
:105470009142079000F0A380FFE70F980168012098
:105480002822C4F202029142079000F09880FFE7C0
:105490000F98016801204022C4F202029142079055
:1054A00000F08D80FFE70F98016801205822C4F2B8
:1054B00002029142079000F08280FFE70F98016896
:1054C00001207022C4F202029142079077D0FFE7D8
:1054D0000F98016801208822C4F2020291420790CD
:1054E0006DD0FFE70F9801680120A022C4F20202EC
:1054F0009142079063D0FFE70F9801680120B8221E
:10550000C4F202029142079059D0FFE70F98016858
:10551000012040F21042C4F20202914207904ED0A4
:10552000FFE70F980168012040F22842C4F202020E
:105530009142079043D0FFE70F980168012040F2A5
:105540004042C4F202029142079038D0FFE70F9820
:105550000168012040F25842C4F2020291420790D1
:105560002DD0FFE70F980168012040F27042C4F28D
:1055700002029142079022D0FFE70F9801680120B4
:1055800040F28842C4F202029142079017D0FFE72E
:105590000F980168012040F2A042C4F20202914239
:1055A00007900CD0FFE70F9800684FF64831CBF614
:1055B000FD710844B0FA80F040090790FFE70798B2
:1055C000C007002800F01385FFE70E980F99C96DFA
:1055D00001F01F01C8400007002840F1B080FFE73C
:1055E0000F9800681021C4F20201884200F0818007
:1055F000FFE70F9800682821C4F20201884278D0A2
:10560000FFE70F9800684021C4F20201884270D081
:10561000FFE70F9800685821C4F20201884268D061
:10562000FFE70F9800687021C4F20201884260D041
:10563000FFE70F9800688821C4F20201884258D021
:10564000FFE70F980068A021C4F20201884250D001
:10565000FFE70F980068B821C4F20201884248D0E1
:10566000FFE70F98006840F21041C4F2020188423F
:105670003FD0FFE70F98006840F22841C4F20201D2
:10568000884236D0FFE70F98006840F24041C4F2EC
:10569000020188422DD0FFE70F98006840F2584180
:1056A000C4F20201884224D0FFE70F98006840F25C
:1056B0007041C4F2020188421BD0FFE70F980068D6
:1056C00040F28841C4F20201884212D0FFE70F98ED
:1056D000006840F2A041C4F20201884209D0FFE70D
:1056E0000F98006840F2B841C4F20201884207D125
:1056F000FFE70F980068006800F00400069006E0DD
:105700000F980068006800F008000690FFE7069810
:10571000A0B1FFE70F980168086820F00400086056
:105720000F98C06D00F01F0108208840099988601B
:105730000F99486D40F001004865FFE7FFE70E98BC
:105740000F99C96D01F01F01C840C007002800F083
:10575000A980FFE70F9800681021C4F20201884277
:1057600000F08180FFE70F9800682821C4F2020151
:10577000884278D0FFE70F9800684021C4F2020108
:10578000884270D0FFE70F9800685821C4F20201E8
:10579000884268D0FFE70F9800687021C4F20201C8
:1057A000884260D0FFE70F9800688821C4F20201A8
:1057B000884258D0FFE70F980068A021C4F2020188
:1057C000884250D0FFE70F980068B821C4F2020168
:1057D000884248D0FFE70F98006840F21041C4F2B9
:1057E000020188423FD0FFE70F98006840F228414D
:1057F000C4F20201884236D0FFE70F98006840F2F9
:105800004041C4F2020188422DD0FFE70F980068A2
:1058100040F25841C4F20201884224D0FFE70F98B9
:10582000006840F27041C4F2020188421BD0FFE7D9
:105830000F98006840F28841C4F20201884212D0F9
:10584000FFE70F98006840F2A041C4F202018842CD
:1058500009D0FFE70F98006840F2B841C4F2020196
:10586000884207D1FFE70F980068406900F0800088
:10587000059005E00F980068006800200590FFE79C
:10588000059870B1FFE70F98C06D00F01F0101206F
:105890008840099988600F99486D40F0020048657A
:1058A000FFE7FFE70E980F99C96D01F01F01C8408F
:1058B0004007002840F1A980FFE70F9800681021F9
:1058C000C4F20201884200F08180FFE70F9800686F
:1058D0002821C4F20201884278D0FFE70F980068BF
:1058E0004021C4F20201884270D0FFE70F9800689F
:1058F0005821C4F20201884268D0FFE70F9800687F
:105900007021C4F20201884260D0FFE70F9800685E
:105910008821C4F20201884258D0FFE70F9800683E
:10592000A021C4F20201884250D0FFE70F9800681E
:10593000B821C4F20201884248D0FFE70F980068FE
:1059400040F21041C4F2020188423FD0FFE70F98B5
:10595000006840F22841C4F20201884236D0FFE7D5
:105960000F98006840F24041C4F2020188422DD0F5
:10597000FFE70F98006840F25841C4F202018842E4
:1059800024D0FFE70F98006840F27041C4F2020192
:1059900088421BD0FFE70F98006840F28841C4F2AC
:1059A0000201884212D0FFE70F98006840F2A04140
:1059B000C4F20201884209D0FFE70F98006840F264
:1059C000B841C4F20201884207D1FFE70F9800688E
:1059D000006800F00200049005E00F98006800687D
:1059E00000200490FFE7049870B1FFE70F98C06DA6
:1059F00000F01F0104208840099988600F99486DC4
:105A000040F004004865FFE7FFE70E980F99C96D65
:105A100001F01F01C840C006002840F1DE80FFE70A
:105A20000F9800681021C4F20201884200F08180C2
:105A3000FFE70F9800682821C4F20201884278D05D
:105A4000FFE70F9800684021C4F20201884270D03D
:105A5000FFE70F9800685821C4F20201884268D01D
:105A6000FFE70F9800687021C4F20201884260D0FD
:105A7000FFE70F9800688821C4F20201884258D0DD
:105A8000FFE70F980068A021C4F20201884250D0BD
:105A9000FFE70F980068B821C4F20201884248D09D
:105AA000FFE70F98006840F21041C4F202018842FB
:105AB0003FD0FFE70F98006840F22841C4F202018E
:105AC000884236D0FFE70F98006840F24041C4F2A8
:105AD000020188422DD0FFE70F98006840F258413C
